{
  "contractName": "SimpleLottery",
  "abi": [
    {
      "inputs": [],
      "stateMutability": "nonpayable",
      "type": "constructor"
    },
    {
      "inputs": [],
      "name": "manager",
      "outputs": [
        {
          "internalType": "address",
          "name": "",
          "type": "address"
        }
      ],
      "stateMutability": "view",
      "type": "function",
      "constant": true
    },
    {
      "inputs": [
        {
          "internalType": "uint256",
          "name": "",
          "type": "uint256"
        }
      ],
      "name": "players",
      "outputs": [
        {
          "internalType": "address",
          "name": "",
          "type": "address"
        }
      ],
      "stateMutability": "view",
      "type": "function",
      "constant": true
    },
    {
      "inputs": [],
      "name": "enter",
      "outputs": [],
      "stateMutability": "payable",
      "type": "function",
      "payable": true
    },
    {
      "inputs": [],
      "name": "getPlayers",
      "outputs": [
        {
          "internalType": "address[]",
          "name": "",
          "type": "address[]"
        }
      ],
      "stateMutability": "view",
      "type": "function",
      "constant": true
    },
    {
      "inputs": [],
      "name": "getBalance",
      "outputs": [
        {
          "internalType": "uint256",
          "name": "",
          "type": "uint256"
        }
      ],
      "stateMutability": "view",
      "type": "function",
      "constant": true
    },
    {
      "inputs": [],
      "name": "pickWinner",
      "outputs": [],
      "stateMutability": "nonpayable",
      "type": "function"
    }
  ],
  "bytecode": "0x608060405234801561001057600080fd5b50600080546001600160a01b0319163317905561062a806100326000396000f3fe6080604052600436106100555760003560e01c806312065fe01461005a578063481c6a751461007a5780635d495aea146100b25780638b5b9ccc146100c9578063e97dcb62146100eb578063f71d96cb146100f3575b600080fd5b34801561006657600080fd5b506040514781526020015b60405180910390f35b34801561008657600080fd5b5060005461009a906001600160a01b031681565b6040516001600160a01b039091168152602001610071565b3480156100be57600080fd5b506100c7610113565b005b3480156100d557600080fd5b506100de6102cf565b60405161007191906104a4565b6100c7610331565b3480156100ff57600080fd5b5061009a61010e3660046104f1565b6103ca565b6000546001600160a01b0316331461017e5760405162461bcd60e51b815260206004820152602360248201527f4f6e6c79206d616e616765722063616e2063616c6c20746869732066756e637460448201526234b7b760e91b60648201526084015b60405180910390fd5b6001546101cd5760405162461bcd60e51b815260206004820152601960248201527f4e6f20706c617965727320696e20746865206c6f7474657279000000000000006044820152606401610175565b6001546000906101db6103f4565b6101e59190610520565b90506000600182815481106101fc576101fc610534565b60009182526020822001546001600160a01b03169150606461021f47605a610560565b610229919061057d565b905060006102378247610591565b6040519091506001600160a01b0384169083156108fc029084906000818181858888f19350505050158015610270573d6000803e3d6000fd5b50600080546040516001600160a01b039091169183156108fc02918491818181858888f193505050501580156102aa573d6000803e3d6000fd5b5060408051600081526020810191829052516102c89160019161042a565b5050505050565b6060600180548060200260200160405190810160405280929190818152602001828054801561032757602002820191906000526020600020905b81546001600160a01b03168152600190910190602001808311610309575b5050505050905090565b662386f26fc1000034116103875760405162461bcd60e51b815260206004820152601f60248201527f4d696e696d756d20656e7472792066656520697320302e3031206574686572006044820152606401610175565b6001805480820182556000919091527fb10e2d527612073b26eecdfd717e6a320cf44b4afac2b0732d9fcbe2b7fa0cf60180546001600160a01b03191633179055565b600181815481106103da57600080fd5b6000918252602090912001546001600160a01b0316905081565b60004442600160405160200161040c939291906105a4565b6040516020818303038152906040528051906020012060001c905090565b82805482825590600052602060002090810192821561047f579160200282015b8281111561047f57825182546001600160a01b0319166001600160a01b0390911617825560209092019160019091019061044a565b5061048b92915061048f565b5090565b5b8082111561048b5760008155600101610490565b6020808252825182820181905260009190848201906040850190845b818110156104e55783516001600160a01b0316835292840192918401916001016104c0565b50909695505050505050565b60006020828403121561050357600080fd5b5035919050565b634e487b7160e01b600052601260045260246000fd5b60008261052f5761052f61050a565b500690565b634e487b7160e01b600052603260045260246000fd5b634e487b7160e01b600052601160045260246000fd5b80820281158282048414176105775761057761054a565b92915050565b60008261058c5761058c61050a565b500490565b818103818111156105775761057761054a565b838152600060208481840152604083018454856000528260002060005b828110156105e65781546001600160a01b0316845292840192600191820191016105c1565b50919897505050505050505056fea2646970667358221220ffc132732cf38df2add8fb504db81d56033c6569c1bf8ebdb2a4836c7b11b4f164736f6c63430008120033",
  "immutableReferences": {},
  "source": "// SPDX-License-Identifier: MIT\r\npragma solidity ^0.8.0;\r\n\r\ncontract SimpleLottery {\r\n    address public manager;\r\n    address[] public players;\r\n    \r\n    constructor() {\r\n        manager = msg.sender;\r\n    }\r\n    \r\n    function enter() public payable {\r\n        require(msg.value > 0.01 ether, \"Minimum entry fee is 0.01 ether\");\r\n        players.push(msg.sender);\r\n    }\r\n    \r\n    function getPlayers() public view returns (address[] memory) {\r\n        return players;\r\n    }\r\n    \r\n    function getBalance() public view returns (uint) {\r\n        return address(this).balance;\r\n    }\r\n    \r\n    function random() private view returns (uint) {\r\n        return uint(keccak256(abi.encodePacked(block.prevrandao, block.timestamp, players)));\r\n    }\r\n    \r\n    function pickWinner() public restricted {\r\n        require(players.length > 0, \"No players in the lottery\");\r\n        \r\n        uint index = random() % players.length;\r\n        address payable winner = payable(players[index]);\r\n        \r\n        // Transfer 90% to winner\r\n        uint winnerAmount = address(this).balance * 90 / 100;\r\n        uint managerFee = address(this).balance - winnerAmount;\r\n        \r\n        winner.transfer(winnerAmount);\r\n        payable(manager).transfer(managerFee);\r\n        \r\n        // Reset the lottery\r\n        players = new address[](0);\r\n    }\r\n    \r\n    modifier restricted() {\r\n        require(msg.sender == manager, \"Only manager can call this function\");\r\n        _;\r\n    }\r\n}\r\n",
  "sourcePath": "D:\\lottery-blockchain\\contracts\\SimpleLottery.sol",
  "compiler": {
    "name": "solc",
    "version": "0.8.18+commit.87f61d96.Emscripten.clang"
  },
  "schemaVersion": "3.4.13",
  "updatedAt": "2025-05-08T04:39:38.710Z",
  "networkType": "ethereum",
  "devdoc": {
    "kind": "dev",
    "methods": {},
    "version": 1
  },
  "userdoc": {
    "kind": "user",
    "methods": {},
    "version": 1
  }
}